:100000000C9462000C948A000C948A000C948A0070
:100010000C948A000C948A000C948A000C948A0038
:100020000C948A000C948A000C948A000C940506A7
:100030000C948A000C948A000C948A000C948A0018
:100040000C94BB050C948A000C9489050C946305F0
:100050000C948A000C948A000C948A000C948A00F8
:100060000C948A000C948A000000000024002700F1
:100070002A0000000000250028002B0000000000DE
:1000800023002600290004040404040404040202DA
:100090000202020203030303030301020408102007
:1000A0004080010204081020010204081020000012
:1000B0000008000201000003040700000000000027
:1000C0000000C10611241FBECFEFD8E0DEBFCDBFB8
:1000D00012E0A0E0B1E0E6EAF8E102C005900D927E
:1000E000A031B107D9F723E0A0E1B2E001C01D9231
:1000F000AA36B207E1F710E0C2E6D0E004C02197CB
:10010000FE010E944B0CC136D107C9F70E94960729
:100110000C94510C0C940000CF92DF92EF92FF925E
:10012000DC01A03282E0B807D4F5A53BB10514F09C
:10013000A4EBB0E04091680328E830E0241B3109CB
:1001400047FD3395220F331F220F331F6901330FF1
:10015000EE08FF084091690328E532E0241B3109CD
:1001600047FD3395220F331F220F331F032E000C40
:10017000440B550B2C193D094E095F09B7FF02C00E
:10018000B0E0A0E00E94060C24EB30E040E050E03C
:100190000E94DC0BC20ED31EE41EF51ED601E091B8
:1001A0006703EC3080F52091680388E890E0821BBB
:1001B000910927FD9395880F991F880F991FA817FC
:1001C000B90784F02091690388E592E0821B9109C8
:1001D00027FD9395880F991F880F991FA817B907B6
:1001E0000CF4CD010297880F991F4FB7F8942E2F6A
:1001F00030E0F901EE0FFF1FE20FF31FE554FD4F52
:10020000928381834FBFFF90EF90DF90CF9008954E
:1002100096E0899FD0011124A052BD4F90967C9307
:100220006E935F9791E091969C939197E0914D0327
:10023000F0914E0390914C03992339F0309751F08F
:10024000811108C08091FC020994309719F05C96E6
:100250008C91FACF0895CF92DF92EF92FF920F9395
:100260001F9396E0899FF0011124E052FD4F11A2E7
:10027000278D30A12130310551F178F02230310540
:1002800009F451C02330310509F452C01F910F9178
:10029000FF90EF90DF90CF9008956623B9F361E06F
:1002A00070E00E9408012FB7F89480911A02909193
:1002B0001B02A0911C02B0911D022FBF8093380336
:1002C00090933903A0933A03B0933B03DFCF9FB7DA
:1002D000F894C0901A02D0901B02E0901C02F0909B
:1002E0001D029FBF009138031091390320913A03FA
:1002F00030913B03C01AD10AE20AF30A00914A0383
:1003000010914B0330E020E00C151D052E053F0534
:1003100050F462E070E01F910F91FF90EF90DF903A
:10032000CF900C9408016111B1CF63E070E0F3CF7E
:1003300070E060E0F0CFFC01538D448D252F30E05C
:10034000842F90E0821B930B541710F0CF960895E2
:1003500001970895FC01918D828D981761F0A28D0F
:10036000AE0FBF2FB11D5D968C91928D9F5F9F73D5
:10037000928F90E008958FEF9FEF0895FC01918D8B
:10038000828D981731F0828DE80FF11D858D90E0F8
:1003900008958FEF9FEF0895FC01918D228D892F95
:1003A00090E0805C9F4F821B91098F73992708957D
:1003B000FC01A48DA80FB92FB11DA35ABF4F2C91DA
:1003C000848D90E001968F739927848FA689B789D1
:1003D0002C93A089B1898C91837080648C93938DC8
:1003E000848D981306C00288F389E02D80818F7D6B
:1003F00080830895EF92FF920F931F93CF93DF9323
:10040000EC0181E0888F9B8D8C8D98131AC0E88950
:10041000F989808185FF15C09FB7F894EE89FF891F
:100420006083E889F98980818370806480839FBFBD
:1004300081E090E0DF91CF911F910F91FF90EF90BD
:100440000895F62E0B8D10E00F5F1F4F0F731127CD
:10045000E02E8C8D8E110CC00FB607FCFACFE88908
:10046000F989808185FFF5CFCE010E94D801F1CFB7
:10047000EB8DEC0FFD2FF11DE35AFF4FF0829FB77C
:10048000F8940B8FEA89FB8980818062CFCFCF936C
:10049000DF93EC01888D8823B9F0AA89BB89E889AC
:1004A000F9898C9185FD03C0808186FD0DC00FB652
:1004B00007FCF7CF8C9185FFF2CF808185FFEDCFD0
:1004C000CE010E94D801E9CFDF91CF9108958EE14E
:1004D00092E00E94CC0121E0892B09F420E0822FD8
:1004E000089580E090E0892B29F00E946702811135
:1004F0000C9400000895AF92BF92CF92DF92EF92DA
:10050000FF920F931F93CF93DF936C017B018B01BD
:10051000040F151FEB015E01AE18BF08C017D1070D
:1005200059F06991D601ED91FC910190F081E02D97
:10053000C6010995892B79F7C501DF91CF911F91EC
:100540000F91FF90EF90DF90CF90BF90AF90089504
:10055000833081F028F4813099F08230A9F0089539
:100560008730A9F08830C9F08430B1F480918000E0
:100570008F7D03C0809180008F77809380000895E5
:1005800084B58F7784BD089584B58F7DFBCF80912E
:10059000B0008F778093B00008958091B0008F7D78
:1005A000F9CFCF93DF93282F30E0F901E255FF4FC9
:1005B0008491F901E656FF4FD491F901EA57FF4FB4
:1005C000C491CC23A1F081110E94A802EC2FF0E08D
:1005D000EE0FFF1FE458FF4FA591B491EC91ED236E
:1005E00081E090E009F480E0DF91CF91089580E010
:1005F00090E0FACF862F0C94D1021F93CF93DF9314
:10060000282F30E0F901E255FF4F8491F901E656B9
:10061000FF4FD491F901EA57FF4FC491CC23A9F0C1
:10062000162F81110E94A802EC2FF0E0EE0FFF1FA1
:10063000EE58FF4FA591B4918FB7F894EC9111113A
:1006400008C0D095DE23DC938FBFDF91CF911F913F
:100650000895DE2BF8CF862F642F0C94FD02CF93E4
:10066000DF9390E0FC01E656FF4F24918A579F4F9D
:10067000FC0184918823C9F090E0880F991FFC0148
:10068000E859FF4FA591B491FC01EE58FF4FC59179
:10069000D49161110DC09FB7F8948C91209582235D
:1006A0008C938881282328839FBFDF91CF91089561
:1006B000623051F49FB7F8943C91822F8095832348
:1006C0008C93E8812E2BEFCF8FB7F894EC912E2BE3
:1006D0002C938FBFEACF862F642F0C942F033FB744
:1006E000F8948091120290911302A0911402B0919B
:1006F000150226B5A89B05C02F3F19F00196A11D34
:10070000B11D3FBFBA2FA92F982F8827BC01CD015B
:10071000620F711D811D911D42E0660F771F881FBA
:10072000991F4A95D1F708958F929F92AF92BF92E9
:10073000CF92DF92EF92FF924B015C010E946F0318
:100740006B017C010E946F036C197D098E099F0962
:10075000683E734081059105A8F321E0821A910853
:10076000A108B10888EEC80E83E0D81EE11CF11C78
:1007700081149104A104B10429F7FF90EF90DF9058
:10078000CF90BF90AF909F908F900895089590E084
:1007900080E00895FB0101900020E9F73197AF0157
:1007A000461B570BDC01ED91FC910280F381E02D9B
:1007B0000994BC018FE493E00C94CA030F931F9338
:1007C000CF93DF93EC010E94CA038C016BE371E0CD
:1007D000CE010E94CA03800F911FDF91CF911F911C
:1007E0000F910895CF93DF93EC0160E08E810E941A
:1007F000FD0261E08E810E94FD0260E08E810E9418
:10080000FD028BE891E00197F1F7DF91CF91089518
:10081000CF92DF92EF92FF920F931F93CF93DF93CC
:100820006C017C0187E0E80EF11CD0E0C0E0062FEF
:1008300010E0B8010C2E02C0759567950A94E2F796
:100840006170F70181917F010E94FD022196C43001
:10085000D10579F7C601DF91CF911F910F91FF90DC
:10086000EF90DF90CF900C94F203CF92DF92EF9253
:10087000FF920F931F93CF93DF93EC01F62E642F1B
:100880008C810E94FD028D818F3F19F060E00E94F3
:10089000FD020F2D10E08F8584FF25C06E0187E0DB
:1008A000C80ED11CF12CE12CB8010E2C02C075959C
:1008B00067950A94E2F76170F60181916F010E94D9
:1008C000FD02FFEFEF1AFF0A88E0E816F10461F776
:1008D000CE01DF91CF911F910F91FF90EF90DF90AC
:1008E000CF900C94F203B80184E0759567958A95D2
:1008F000E1F7CE010E9408046F2DCE01DF91CF9168
:100900001F910F91FF90EF90DF90CF900C9408040F
:1009100040E0682F8FE493E00C94350481E00E945E
:1009200088048BE39FE10197F1F70895CF93DF935C
:10093000823029F490915E03986090935E038093D7
:1009400062031092630380E48093640380E18093E8
:10095000650380E58093660361E0809153030E9404
:100960002F03809154038F3F19F061E00E942F0301
:1009700061E0809155030E942F03CFE4D3E09E01F4
:100980002F54334080915E0384FD0BC084E090E0DF
:1009900021962817390744F461E08E810E942F03C5
:1009A000EECF88E090E0F4CF8BE39DE00197F1F784
:1009B00060E0809153030E94FD0260E08091550346
:1009C0000E94FD02809154038F3F19F060E00E9465
:1009D000FD0280915E0384FD34C063E08FE493E008
:1009E0000E940804CBE4D6E4CE010197F1F763E05E
:1009F0008FE493E00E9408042197F1F763E08FE40D
:100A000093E00E94080483E592E00197F1F762E029
:100A10008FE493E00E94080480915E0380620E944C
:100A2000880484E080935F038CE00E9488040E9425
:100A30008E0482E08093600386E0DF91CF910C9476
:100A4000880480620E9488048BE496E40197F1F7A1
:100A500080915E0380620E94880483E592E00197A2
:100A6000F1F780915E0380620E948804D5CF6430E4
:100A700008F063E090916203691710F06FEF690F5F
:100A8000E62FF0E0E15BFC4F9489890F80680C94BD
:100A9000880460E080E00E9437056EE371E08FE437
:100AA00093E00E94DE0361E081E00E9437056DE47F
:100AB00071E08FE493E00C94DE0341E00E94350482
:100AC00081E090E008951F920F920FB60F921124CB
:100AD0002F933F934F935F936F937F938F939F9346
:100AE000AF93BF93EF93FF938EE192E00E94D80102
:100AF000FF91EF91BF91AF919F918F917F916F91F6
:100B00005F914F913F912F910F900FBE0F901F90CB
:100B100018951F920F920FB60F9211242F938F9357
:100B20009F93EF93FF93E0912E02F0912F0280812B
:100B3000E0913402F091350282FD1BC090818091DA
:100B400037028F5F8F7320913802821741F0E09156
:100B50003702F0E0E25EFD4F958F80933702FF9100
:100B6000EF919F918F912F910F900FBE0F901F903B
:100B700018958081F4CF1F920F920FB60F92112417
:100B80002F933F938F939F93AF93BF9380911A02BC
:100B900090911B02A0911C02B0911D023091110294
:100BA00023E0230F2D3758F50196A11DB11D209389
:100BB000110280931A0290931B02A0931C02B0931F
:100BC0001D028091120290911302A0911402B09123
:100BD00015020196A11DB11D80931202909313027C
:100BE000A0931402B0931502BF91AF919F918F9182
:100BF0003F912F910F900FBE0F901F90189526E8F0
:100C0000230F0296A11DB11DD2CF1F920F920FB6D6
:100C10000F9211242F933F934F935F936F937F9382
:100C20008F939F93AF93BF93CF93DF93EF93FF93F4
:100C300080911002C091DF02D0E087FF24C01092A3
:100C4000850010928400809110028F5F80931002C3
:100C500080911002082E000C990B8C179D0724F42C
:100C6000809110028C30C4F18091840090918500B5
:100C7000049680349C4908F47AC080918400909155
:100C80008500049676C080911002082E000C990B06
:100C90008C179D07C4F6E09110028E2FEE0F990B72
:100CA000FC01EE0FFF1FE80FF91FE554FD4F808197
:100CB00086FFC9CFE09110028E2FEE0F990BFC0139
:100CC000EE0FFF1FE80FF91FE554FD4F808160E034
:100CD0008F730E94FD02B7CF209184003091850070
:100CE000E09110028E2FEE0F990BFC01EE0FFF1F0B
:100CF000E80FF91FE554FD4F81819281820F931F08
:100D00009093890080938800E09110028E2FEE0F5F
:100D1000990BFC01EE0FFF1FE80FF91FE554FD4F83
:100D2000808186FF11C0E09110028E2FEE0F990B8B
:100D3000FC01EE0FFF1FE80FF91FE554FD4F808106
:100D400061E08F730E94FD02FF91EF91DF91CF91DF
:100D5000BF91AF919F918F917F916F915F914F91D3
:100D60003F912F910F900FBE0F901F90189580E428
:100D70009CE990938900809388008FEF8093100204
:100D8000E3CF109221021092200288EE93E0A0E0BF
:100D9000B0E08093220290932302A0932402B093A8
:100DA000250287E191E090931F0280931E0285EC5B
:100DB00090E090932B0280932A0284EC90E0909331
:100DC0002D0280932C0280EC90E090932F02809370
:100DD0002E0281EC90E0909331028093300282ECFD
:100DE00090E0909333028093320286EC90E09093EF
:100DF000350280933402109237021092380210921A
:100E0000390210923A028091DF028C3008F08AC0D9
:100E100091E0980F9093DF028093670390E0FC01CC
:100E2000EE0FFF1FE80FF91FE554FD4F88EB9BE025
:100E300092838183109252031092510383E391E0D5
:100E40009093500380934F0382E1809353038FEF7D
:100E50008093540383E18093550381E1809356038B
:100E600080E1809357038FE0809358038EE0809356
:100E7000590310925A0310925B0310925C03109274
:100E80005D0310925E0381E00E9496041092E202DC
:100E90001092E6021092E5021092E70289E291E0D8
:100EA0009093E1028093E002ECEFF2E01082148272
:100EB00013821582369683E0E833F807B9F783E0AA
:100EC00091E0909343038093420380E091E09093FC
:100ED00045038093440384E08093460383E080933A
:100EE000470387E091E090934103809340038AE0B9
:100EF00090E0909349038093480384EF91E09093AE
:100F00004B0380934A0310924E0310924D031092AC
:100F10003C0310923D0310923E0310923F03109247
:100F20004C0308958FEF8093670384CF789484B542
:100F3000826084BD84B5816084BD85B5826085BDD5
:100F400085B5816085BD80916E00816080936E0063
:100F50001092810080918100826080938100809155
:100F60008100816080938100809180008160809306
:100F700080008091B10084608093B1008091B000C6
:100F800081608093B00080917A00846080937A00C1
:100F900080917A00826080937A0080917A008160EB
:100FA00080937A0080917A00806880937A00109212
:100FB000C1000E944905809167038C3008F051C040
:100FC00061E089E00E942F0380916703282F30E0C1
:100FD000F901EE0FFF1FE20FF31FE554FD4F908163
:100FE000907C9960908310926803109269032CE0C2
:100FF000622F0E943F0C829FB001112430E020E05C
:10100000AB01420F531FFA01EE0FFF1FE40FF51F54
:10101000E554FD4F908196FD16C02F5F3F4F2C3059
:10102000310571F781110FC01092800082E080932A
:1010300081001092850010928400B19A80916F0017
:10104000826080936F00E09167038E2F90E0FC0137
:10105000EE0FFF1FE80FF91FE554FD4F80818064FC
:10106000808382E00E949604812C912C5401839409
:1010700040E0442E40E0542E54EB652E712C8091BC
:10108000180290911902892B11F40E94490551E030
:1010900050934C038FB7F89440911A0250911B0261
:1010A00060911C0270911D028FBF80913C03909152
:1010B0003D03A0913E03B0913F03481B590B6A0BBF
:1010C0007B0B8091480390914903B0E0A0E0841726
:1010D0009507A607B70708F017C1C0E0809146033F
:1010E000C81760F4E0914203F0914303EC0FF11D47
:1010F00062E080810E942F03CF5FF0CF312C80917E
:101100004703381608F05FC0032D10E0E091440358
:10111000F0914503E00FF11F61E080810E942F03F1
:10112000E0914403F0914503E00FF11F60E08081FE
:101130000E94FD02D501C401032C04C0880F991F31
:10114000AA1FBB1F0A94D2F76C017C01E094F094B3
:10115000212C809146032816F8F4C22DD0E0E091AE
:101160004203F0914303EC0FFD1F80810E94D102E6
:101170002496CC0FDD1FC052DD4F892B41F48881AE
:1011800099818C299D29998388832394E2CF888132
:1011900099818E219F21F7CFE0914403F09145037F
:1011A000E00FF11F61E080810E94FD028091440305
:1011B00090914503080F191F60E0F80180810E949B
:1011C0002F0333949CCFC0EED2E0FE01878D90A117
:1011D000892B31F4148E8FEF9FEF968F858F11A29C
:1011E000369693E0EC31F90789F7F12C80914603AC
:1011F000F81608F051C0E12C0F2D10E0000F111F60
:1012000008511D4F20914703E21608F043C0F80132
:10121000608171810E2C02C0769567950A94E2F781
:10122000F29E900111242E0D311DE0EEF2E080E0DF
:10123000458D568D2417350709F4BCC28F5F36964D
:101240008A30B1F760FF24C0E0EEF2E090E080E089
:10125000448D411118C0E0914003F0914103E20F29
:10126000F31F408156E0589FF001599FF00D112463
:10127000E052FD4F448F368F258F10A2178E61E00C
:101280000E942B0105C0019636968A30910501F720
:10129000E394B8CFF394AACF80E099A19111892F5C
:1012A000269693E0CC31D907C1F79FB7F8944091C7
:1012B0001A0250911B0260911C0270911D029FBF87
:1012C00040933C0350933D0360933E0370933F0370
:1012D0008823D1F0809101038823B1F08091FF022F
:1012E00090910003019781F41091FC0211110FC03D
:1012F0004114510409F4C3CE0E946702882309F403
:10130000BECE0E940000BBCE10924C03F1CF0E94D3
:101310008E0460E080E00E9437058CE591E00E9439
:10132000D90361E087E00E94370586E691E00E94DC
:10133000D90361E087E00E943705D0E0C0E08091EA
:101340001802909119028C179D0734F088E691E0FD
:101350000E94D9032196F3CFFC01E659FE4F20816C
:101360002113DDC10196909319028093180204970E
:1013700009F0BECF64E873E080E090E00E9494033F
:1013800060E080E00E94370566E671E08FE493E05C
:101390000E94DE0360E081E00E9437058FE691E065
:1013A0000E94D90361E084E00E9437056EE771E096
:1013B0008FE493E00E94DE0361E08FE00E94370536
:1013C00066E671E08FE493E00E94DE0361E080E175
:1013D0000E94370566E671E08FE493E00E94DE0329
:1013E00061E08EE00E94370566E671E08FE493E0ED
:1013F0000E94DE0361E08DE00E94370566E671E041
:101400008FE493E00E94DE0370921702609216024E
:10141000C0911602D0911702D7FD0FC0CE010E94D5
:101420008C0065E070E080E090E00E9494032597D6
:10143000D0931702C0931602EBCF60ED77E080E007
:1014400090E00E94940368EE73E080E090E00E94D8
:10145000940360EB74E080E090E00E9494030E94AB
:101460008E046FE082E00E94370566E671E08FE44B
:1014700093E00E94DE036EE082E00E94370566E69C
:1014800071E08FE493E00E94DE0360E082E00E945E
:10149000370568EC70E080E090E00E94940368E813
:1014A00071E08FE493E00E94DE0361E084E00E943B
:1014B000370589E991E00E94D90368EC70E080E08B
:1014C00090E00E9494030E948E0460E082E00E94FB
:1014D00037056BE971E08FE493E00E94DE0368EE6C
:1014E00073E080E090E00E94940360E082E00E945C
:1014F00037056BE971E08FE493E00E94DE0361E061
:1015000084E00E9437058AEA91E00E94D90364E6EC
:1015100070E080E090E00E9494030E948E0460E0FE
:1015200082E00E9437056BE971E08FE493E00E944E
:10153000DE0368EE73E080E090E00E94940360E0D8
:1015400082E00E9437056BE971E08FE493E00E942E
:10155000DE0361E084E00E9437058DE691E00E94A1
:10156000D90364E670E080E090E00E9494030E945A
:101570008E0460E082E00E9437056BE971E08FE441
:1015800093E00E94DE0368EE73E080E090E00E944A
:10159000940360E082E00E9437056BE971E08FE41C
:1015A00093E00E94DE0361E084E00E9437058CEA4C
:1015B00091E00E94D90364E670E080E090E00E9430
:1015C00094030E948E0460E082E00E9437056BE97C
:1015D00071E08FE493E00E94DE0368EE73E080E048
:1015E00090E00E94940361E084E00E9437058EEA57
:1015F00091E00E94D90364E670E080E090E00E94F0
:1016000094030E948E0460E082E00E94370560EB44
:1016100071E08FE493E00E94DE0368EE73E080E007
:1016200090E00E94940368E270E080E090E00E9405
:1016300094030E948E0460E082E00E94370580ECF3
:1016400091E00E94D90364EF71E080E090E00E9495
:10165000940360E08CE00E9437058BEC91E00E94DF
:10166000D90364EF71E080E090E00E94940360E0B1
:101670008DE00E9437058BEC91E00E94D90364EF66
:1016800071E080E090E00E94940360E08EE00E94B0
:1016900037058BEC91E00E94D90360E971E080E0AE
:1016A00090E00E9494030E948E0460E084E00E9417
:1016B00037058DEC91E00E94D90368EB71E080E082
:1016C00090E00E94940368EE73E080E090E00E9456
:1016D00094031092170210921602809116029091B4
:1016E0001702853B91050CF060C00E948C006FE0F2
:1016F00070E080E090E00E94940310921902109232
:1017000018020E948E040E94490580911602909151
:10171000170205969093170280931602DECF64EFAE
:1017200071E080E090E00E9494030E948E0460E0EB
:1017300081E00E94370588E491E00E94D90360E0CF
:1017400086E00E94370585ED91E00E94D90361E0B3
:101750008FE00E94370566E671E08FE493E00E9417
:10176000DE0361E084E00E9437056FED71E08FE4F5
:1017700093E00E94DE0361E08DE00E94370566E69B
:1017800071E08FE493E00E94DE036BEE71E08EE186
:1017900092E00E94DE0368EB7BE080E090E00E9434
:1017A00094030E948E040E9449051092190210921F
:1017B00018029ECD617064CD052E97FB1EF4009437
:1017C0000E94F30B57FD07D00E940E0C07FC03D0BC
:1017D0004EF40C94F30B50954095309521953F4F66
:1017E0004F4F5F4F089590958095709561957F4F0D
:1017F0008F4F9F4F08950E94300CA59F900DB49F6E
:10180000900DA49F800D911D11240895B7FF0C9495
:10181000FB0B0E94FB0B821B930B0895A1E21A2E77
:10182000AA1BBB1BFD010DC0AA1FBB1FEE1FFF1F84
:10183000A217B307E407F50720F0A21BB30BE40BD4
:10184000F50B661F771F881F991F1A9469F760951B
:101850007095809590959B01AC01BD01CF010895D5
:10186000A29FB001B39FC001A39F700D811D1124E1
:10187000911DB29F700D811D1124911D0895991B1A
:1018800079E004C0991F961708F0961B881F7A9577
:10189000C9F780950895EE0FFF1F0590F491E02D94
:0618A0000994F894FFCF4B
:1018A6000405060001020331323334353637383940
:1018B6002A302300000000FA017B029B014702CC7C
:1018C60001AA01BE01000000006B032B03FA02000F
:1018D6000000005D057B02C703C6030D0A00454EE6
:1018E6005445522054484520434F444500544F2008
:1018F6004F50454E20444F4F5221210050415353E3
:10190600574F52443A0020002A003031323300410A
:101916006363657373204772616E7465640057452F
:101926004C434F4D4521210047455420494E2057F1
:10193600495448494E3A3A3A0035004745542049F9
:101946004E2057495448494E3A003400320031007F
:1019560047455420494E2057495448494E3A3A0083
:1019660052452D4C4F434B494E47002E004C4F439A
:101976004B45442100494E434F525245435400477C
:101986004554204157415921212100434F444520C8
:10199600494E434F525245435420594F55204152C8
:1019A6004520554E415554484F52495A454400002A
:00000001FF
